:020000040000FA
:020000001A28BC
:040002000034003492
:0800080005282700FF30130654
:1000100093052000371C132820001D082000B30082
:100020000230B704090020001D082000B400013090
:04003000B70009000C
:0C00340020003030B3004530B400200044
:100040008C0122008C0123008C0121000C308C00DB
:1000500020008E0122008E0123008E01210000303D
:100060008E002000FF309E00200007309F002700F8
:10007000121527001115210010168B170B172000E1
:1000800000000000B71C3F280030B7009C209C20D7
:10009000A920073020003405B500BB20C220200075
:1000A000351D5728B51C5C28351C91284828B51CDF
:1000B0005F28351C6A287328351C7D288728351C45
:1000C00062284828C13022008E058E14CF302200CD
:1000D0008C053F28C13022008E050E15CF3022003E
:1000E0008C058C163F28C13022008E0506308E0408
:1000F000CF3022008C058C163F28C13022008E059F
:1001000034308E04CF3022008C058C163F28C1304D
:1001100022008E0536308E04CF3022008C058C16DE
:100120003F28C13022008E053C308E04CF302200A3
:100130008C0530308C043F2820007F30B000B100A7
:100140000530B200B00BA228B10BA228B20BA22836
:1001500008002000330D3306890DB30E340EB600AF
:10016000360DB60D890C36083306B30E0139B40DC1
:10017000B406B30D0800C13022008E05CF30220036
:100180008C05080022008C169C20BB2022000C1637
:100190009C20BB2022008E169C20BB2022000E1625
:1001A0009C20BB2022008E159C20BB2022000E1517
:0601B0009C20BB200800AA
:020000040001F9
:02000E00FF3FB2
:02001000F33FBC
:02001200FF3FAE
:02001400FF3FAC
:00000001FF
